:020000040800F2
:10000000200F002065010008E93C0008352C00089D
:10001000FD350008110D00088D45000800000000A6
:100020000000000000000000000000001D3E00086D
:10003000790D0008000000000B3D0008913E00080B
:100040007F0100087F0100087F0100087F01000890
:100050007F0100087F0100087F0100087F01000880
:100060007F0100087F0100087F0100087F01000870
:100070007F0100087F0100087F0100087F01000860
:100080007F0100087F0100087F0100087F01000850
:100090007F0100087F0100087F0100087F01000840
:1000A0007F0100087F0100087F0100087F01000830
:1000B0007F0100087F0100087F0100087F01000820
:1000C0007F0100087F0100087F0100087F01000810
:1000D0007F01000869450008754500088145000852
:1000E0007F0100087F0100087F0100080000000078
:1000F0000000000000000000000000000000000000
:1001000000000000000000007F0100087F010008DF
:100110007F0100087F010008513F00085D3F000893
:100120007F0100087F0100087F0100087F010008AF
:100130007F0100087F0100087F0100087F0100089F
:100140007F0100087F0100087F0100087F0100088F
:10015000DFF80CD000F0BCFC00480047A55D0008AB
:10016000200F00200648804706480047FEE7FEE7CC
:10017000FEE7FEE7FEE7FEE7FEE7FEE7FEE7FEE757
:10018000FD3E0008510100082DE9F05F0546002002
:1001900092469B4688460646814640241BE02846F8
:1001A00041464746224600F020F853465A46C01AB8
:1001B000914110D311461846224600F06BFB2D1AD0
:1001C00067EB01084F4622460120002100F062FB48
:1001D00017EB00094E41201EA4F10104DFDC484664
:1001E00031462A464346BDE8F09F202A04DB203AE8
:1001F00021FA02F00021704721FA02F3D040C2F147
:100200002002914008431946704740EA01039B07CA
:1002100003D009E008C9121F08C0042AFAD203E07B
:1002200011F8013B00F8013B521EF9D27047D2B2DF
:1002300001E000F8012B491EFBD270470022F6E7CF
:1002400010B513460A4604461946FFF7F0FF20464C
:1002500010BDF0B480EA0102D40F4200B2EB410FAE
:1002600002D20246084611464A0042D0C30DDDB212
:10027000C1F3C752AD1A202D35DAC1F3160141F48E
:10028000000204B15242C5F1200602FA06F12A41E9
:100290001044B3EBD05F23D0C4B1012DA0EBC35009
:1002A00009DCF0BC4FF0004202EAC352DBB200F5B9
:1002B000000000F019BB400000F1807000EBC3505B
:1002C000A0F1807040EAD170490009E0490841EA94
:1002D000C071A0EBC35000F50000400800EBC35014
:1002E000F0BC00F0F8BA6142012202EB4101001BB0
:1002F000F6E7F0BC704781F00041AAE780F00040CB
:10030000A7E780EA010210B502F00043400022D0C6
:100310004A001FD0010E01EB1261C0F35600C2F378
:10032000560240F4000042F40002A0FB0220000448
:100330007F39140400D0401C50EA124001D4400020
:10034000491EC2B20C0604EBD010401C4008802AA3
:1003500002D003E0002010BD20F00100002900DAE7
:100360000020184310BD30B480EA010202F00045BD
:1003700030F0004221F0004013D090B1C30DD40DF5
:10038000C2F31601C0F31600E41A41F4000140F470
:1003900000027D34914201D3641C00E04900002C2E
:1003A00002DA30BC002070474FF400000023914275
:1003B00001D3891A034340084FEA4101F7D151B1F3
:1003C000914202D14FF0004105E002D24FF001010D
:1003D00001E06FF0010103EBC450284430BC00F091
:1003E0007ABA420005D0C0F3C7525242914201DCB2
:1003F0000020704700EBC15070472DE9FE4F80464A
:1004000081EA0300C00F0C46009021F0004123F068
:100410000045B8EB0200A94105D24046214690466E
:100420001C460B46024623F00040104347D0270DE0
:10043000C7F30A00C3F30A510290401A0190402802
:100440006BDAC3F3130040F4801B0098924620B18E
:100450000023D2EB030A63EB0B0B01985946C0F162
:100460004002504600F016FA06460D4650465946E0
:10047000019A00F01EFA10EB08006141002487EA9F
:10048000115284EAE7731A4340D0009A62B3019A8A
:10049000012A4FEA075215DC001B61EB02014FF005
:1004A000004202EA0752CDE90042001C41F58011EA
:1004B00032462B4600F055FA03B0BDE8F08F4046B7
:1004C0002146F9E7001B61EB0201001C41F5801396
:1004D00000185B412018A2F5001747EB030140EA22
:1004E000D570B6196D4111E06D084FEA360645EA40
:1004F000C0754FEA0752001B61EB0201001C41F579
:10050000801149084FEA30000019514132462B460C
:1005100003B0BDE8F04F00F015BA0098012240008A
:100520000023D0EB020263EBE073009821464FEA10
:10053000E074B8EB000061EB0401E9E783F00043ED
:100540005BE781F0004158E72DE9FE4F81EA0304A3
:1005500004F0004421F0004100944FF0000B23F020
:10056000004350EA01045ED052EA03045BD0C3F3B7
:100570000A54C1F30A552C44A4F2F3340194A0FBAD
:100580000254C1F3130141F48011C3F3130343F484
:10059000801301FB024400FB034E840A970A44EADD
:1005A000815447EA8357A4FB076802958D0A05FB2F
:1005B00007854FEA932C04FB0C542705029D4FEA54
:1005C000065847EA1637B5EB08056EEB070C870EA1
:1005D000920E47EA811742EA8312A7FB0201B6EBAB
:1005E0000B0164EB00042B0D43EA0C335E1844EB63
:1005F0001C50DA465146E7FB0201C5F313044FEAEB
:100600000B3343EA14534FEA0432019C43EA0603D6
:10061000A4F10C040294009CCDE900B400F0A1F90F
:1006200003B0BDE8F08F00200146F9E72DE9F04D59
:1006300081EA030404F0004B21F0004514464FF01A
:10064000000A23F0004150EA050220D054EA0102DA
:100650001DD0C5F30A570246C5F31303C1F31300B7
:10066000C1F30A5640F4801543F48013A7EB060843
:10067000101BD64608F2FD3873EB050002D308F1D3
:10068000010801E092185B41B8F1000F03DA002085
:100690000146BDE8F08D00204FF4801106468446E7
:1006A0000EE0171B73EB050705D3121B63EB050365
:1006B00006434CEA010C49084FEA300092185B41AE
:1006C00050EA0107EDD152EA030012D082EA040099
:1006D00083EA0501084305D0101BAB4106D2012275
:1006E000002306E000224FF0004302E06FF0010219
:1006F00053101AEB06004CEB085110EB0A0041EBCB
:100700000B01BDE8F04D00F01DB970B521F00043BC
:1007100003430CD0C1F30A550024D5EB040564EB68
:100720000403D617AD1AB34102DB0020014670BDA9
:10073000201841EB025170BDC10F80EAE0700844FF
:10074000CA079623002100F0CFB80EB5C10F80EA8A
:10075000E0700844CA07002140F233438DE80E00E0
:100760000A460B4600F0FDF803B000BD00F0004261
:1007700020F00040C10DC0F3160040F400007F29B6
:1007800001DA00207047962903DCC1F19601C840C8
:1007900001E096398840002AF4D04042704770B595
:1007A000C1F30A5201F000450024C1F3130140F2E5
:1007B000FF3341F480119A4201DA002070BD40F20B
:1007C00033439A42A2F2334203DC5242FFF70DFD5B
:1007D00000E090402C43F1D0404270BD00F0004258
:1007E00030F000400AD0C10D01F56071C0F3160071
:1007F00042EA0151C20840071143704700200146F8
:100800007047000030B5041E71F1000404DB4FF0A6
:100810000044404264EB0101141E73F1000405DB47
:100820001C464FF00043524263EB04038B4208BF67
:10083000824230BD01F0004330B421F0004150EA63
:10084000010206D00A0DA2F56072C1F31301002A5D
:1008500002DC30BC00207047440F44EAC104C100F0
:10086000E01830BC00EBC25000F035B8002801DBC6
:10087000C0F10040002901DBC1F100418142704715
:10088000002801DBC0F10040002901DBC1F100417B
:1008900088427047202A04DB203A00FA02F1002047
:1008A00070479140C2F1200320FA03F319439040AE
:1008B0007047202A06DBCB17203A41FA02F043EAC0
:1008C000E07306E041FA02F3D040C2F12002914009
:1008D0000843194670470029A8BF7047401C4900CB
:1008E00008BF20F00100704710B4B0FA80FC00FA95
:1008F0000CF050EA010404BF10BC704749B1CCF1C0
:10090000200421FA04F411FA0CF118BF012121434B
:100910000843A3EB0C01CB1D4FEA00614FEA102006
:1009200042BF002010BC704700EBC35010440029A8
:10093000A4BF10BC7047401C490008BF20F0010054
:1009400010BC704710B5141E73F1000408DA401C87
:1009500041F1000192185B411A4301D120F00100DE
:1009600010BD2DE9F04D92469B4611B1B1FA81F2CE
:1009700002E0B0FA80F220329046FFF78BFF044687
:100980000F4640EA0A0041EA0B0153465A46084323
:1009900013D0114653EA010019D0C8F14002504665
:1009A000FFF723FC05460E46504659464246FFF7E0
:1009B00071FF084305D0012004E020463946BDE818
:1009C000F08D0020054346EAE0762C4337430A9831
:1009D0006305E40AA0EB08000022FD0A44EA47543C
:1009E0000A3002D500200146E9E7010510196941E6
:1009F000DDE9084500196941BDE8F04DA2E72DE9A0
:100A0000F04D00231A461B1A8A4103DB00200146E1
:100A1000BDE8F08DC1F30A52C1F3130141F4801512
:100A20004FF0000BD10702D100186D41521E002774
:100A3000044640F2FF11384601EB620A3E4680460A
:100A4000024600204FF48011FFF7CFFBC21971411D
:100A5000BB1846EB0100B4EB030C75EB000C04D3A0
:100A6000E41A65EB000517460E46241908F101004B
:100A70006D4180463428E3DDF91946EB0600091B79
:100A8000A84103D24FF0FF32134601E00022134683
:100A90001BEB070046EB0A51BDE8F04DFFF752BFD4
:100AA00030B5041E71F1000404DB4FF000444042F5
:100AB00064EB0101141E73F1000405DB1C464FF0CA
:100AC0000043524263EB0403994208BF904230BD99
:100AD000064C074D06E0E06840F0010394E807008B
:100AE00098471034AC42F6D3FFF736FB806C000811
:100AF000A06C00080EB540F2334102910021CDE90F
:100B000000110A460B46FFF72CFF03B000BD70B57D
:100B10008C1810F8015B15F0070301D110F8013BA8
:100B20002A1106D110F8012B03E010F8016B01F82F
:100B3000016B5B1EF9D12B0705D40023521E0DD487
:100B400001F8013BFAE710F8013BCB1A921C03E0D5
:100B500013F8015B01F8015B521EF9D5A142D8D30D
:100B6000002070BD10B502220F4B11460F4804F053
:100B700089FA0D4B0D48022210331146083004F05B
:100B800081FA094B09480222B43311466C3004F053
:100B900079FA054B02220548C433BDE810401146DE
:100BA000743004F06FBA0000F8000020D005002077
:100BB00070B5144CA06948B904F15000216AC160B5
:100BC000A16A01610146104805F07AF8A06932284F
:100BD00001DA401CA0610C48A26A216A04F0DAFF25
:100BE000094DA26909490A4ED835322A01DA206A2C
:100BF00000E00068FFF7B7FB3146FFF782FB286093
:100C000070BD0000140000208C050020DB0F49405F
:100C10000000344370B5144CE06948B904F58270A3
:100C2000616AC160E16A01610146104805F048F857
:100C3000E069322801DA401CE0610C48E26A616A2E
:100C400004F0A8FF094DE26909490A4E6C35322AC1
:100C500001DA606A00E00068FFF785FB3146FFF7C4
:100C600050FBA86070BD000014000020F8050020B3
:100C7000DB0F4940000034432DE9F041214C204E68
:100C80003146206AFFF76FFB1F4F3946FFF739FBEC
:100C90003946FFF7DEFAFFF769FD3221484360630A
:100CA0003146606AFFF75FFB3946FFF72AFB39469A
:100CB000FFF7CFFAFFF75AFD32214843134DA063E7
:100CC00031462868FFF74FFB3946FFF71AFB3946D4
:100CD000FFF7BFFAFFF74AFD32214843E063314690
:100CE000A868FFF740FB3946FFF70BFB3946FFF7D3
:100CF000B0FAFFF73BFD322148432064BDE8F081A4
:100D0000DB0F49401400002000003443640600203B
:100D1000FEE770B50DF1100C9CE87000027046669D
:100D2000C1F8B8500C60CB6570BD10B514461046C4
:100D300000F011F8204600F005F82046BDE810400C
:100D400000F011B8D0F8941040F8081F50F8041CB7
:100D50004160016C0847C16D40F8641F50F8041CE5
:100D60004160016C084750F8B81F40F8081F50F860
:100D7000041C4160016C084770470000114988421B
:100D800002D0B83188420AD1D0E90312914200DC86
:100D90001146C1604269914200DB1146C1600949B8
:100DA0005C31884202D0B83188420AD1D0E90321AF
:100DB0008A4200DA1146C1604269914200DC114664
:100DC000C160704750090020704700002DE9F05FB6
:100DD00090F821100024022903D00421816301240A
:100DE00085E001680A6822F00E020A6001680A685C
:100DF00022F001020A603F4E3E4FB215DFF8F4C008
:100E0000DFF8F090DFF8ECA0DFF8E8B0DFF8E4E01E
:100E10000168783F13011502ACF1640CA9F1500987
:100E2000AAF13C0AABF1280BAEF1140E4FF4801876
:100E3000B14227D9B9420ED0614512D049451DD0E3
:100E4000514518D0594518D0714501D1424615E099
:100E5000294EB14201D1012210E0274E1436B14291
:100E600001D110220AE0244E2836B14206D0224A8F
:100E70003C32914201D11A4600E02A461E49091F20
:100E80000A602BE0B94213D0614517D0494522D002
:100E900051451DD059451DD0714501D142461AE03A
:100EA000B14202D14FF0807215E0134EB14201D130
:100EB000012210E0104E1436B14201D110220AE096
:100EC0000D4E2836B14206D00B4A3C32914201D138
:100ED0001A4600E02A46074980394A60012180F815
:100EE0002110002180F82010416B01B18847204675
:100EF000BDE8F09F800002400804024070B504463F
:100F000000F0ECF80546601C02D004480078044468
:100F100000F0E4F8401BA042FAD370BD04000020AA
:100F20002DE9F84FDFF890A100220AF1040B1446D6
:100F300001274FF00F090BF1040E00BF0B6807FAF1
:100F400004F52B40AB4274D1DFF870C14E68A6EBBC
:100F50000C0866452BD00DDC032E34D005DC36B3EF
:100F6000012E19D0022E2FD11BE0112E16D0122ED9
:100F70002AD119E0B8F5881F19D006DCB8F5803FF2
:100F800015D0B8F5801F1FD111E0B8F5001F0ED0A5
:100F9000B8F5041F18D10AE0CA6815E0CA68121D26
:100FA00012E0CA6808320FE0CA680C320CE08A68A6
:100FB0002AB1012A4FF0080203D0456104E004225F
:100FC00002E0056100E00022FF2B01D8064601E0A7
:100FD00000F104064FEA840501D9A5F12005D6F8F1
:100FE00000C009FA05F82CEA080C02FA05F54CEAEB
:100FF000050CC6F800C04D68ED0057D5304DAE6900
:1010000046F00106AE61AD6924F0030605F0010566
:1010100000952C4D06EB050CDCF80850A6074FEAAE
:10102000167809FA08F6B543274EB04202D10026D9
:1010300010E03BE0254EB04201D101260AE0244EEB
:10104000B04201D1022605E0224EB04201D1032672
:1010500000E0042606FA08F62E43CCF808604D6836
:10106000DAF80060ED03554601D51E4300E09E43CB
:101070002E604D68DBF80060AD035D4601D51E4370
:1010800000E09E432E604D68DEF80060ED0275467C
:1010900001D51E4300E09E432E604D68AD020E4D0B
:1010A0002E6801D51E4300E09E432E60641C102C68
:1010B000FFF444AFBDE8F88F0004014000001110B8
:1010C000001002400000014000080140000C0140F7
:1010D00000100140001401400C04014001488068E8
:1010E000704700000400002070B504001BD094F885
:1010F0003D00002520B984F83C50204600F0F2FA6B
:10110000242084F83D002068016821F0010101607D
:1011100000F06AFC404A6168914201D83F4900E012
:101120003F49884201D2012070BD3E492368B0FB8F
:10113000F1F159606368934206D94FF496735943AD
:101140004FF47A73B1FBF3F12368491C19626168AB
:10115000914210D84900401EB0FBF1F2521CC2F37C
:101160000B02042A01D2042022E0B0FBF1F0401C63
:10117000C0F30B001CE0A368CBB301EBC10202EB90
:101180000116421EB2FBF6F2521C42F480421205D6
:1011900036D06BB301EBC10202EB0111401EB0FB74
:1011A000F1F0401CC0F30B0040F4804040F40040DC
:1011B0002168C861D4E90701084321680860D4E9BF
:1011C0000310084321688860D4E9050108432168B9
:1011D000C8602068016841F0010101602564202099
:1011E00084F83D00256384F83E50002070BD00E087
:1011F00008E001EB4106421EB2FBF6F2521CC6E7C4
:101200000120D5E701EB4101401EB0FBF1F0401C8D
:10121000C0F30B00CAE70000A086010080841E0016
:1012200000093D0040420F002DE9FF4F81B0994673
:101230008B4604464FF00108FFF750FF054694F82F
:101240003D0020287BD1192301224D4920460095DD
:1012500001F0F5FD002872D194F83C0001286ED011
:10126000012084F83C0020680168C90703D10168A7
:1012700041F0010101602068016821F40061016012
:10128000242084F83D00002626643E48E0622027A2
:101290002068016841F4807101604B4600224FF0E4
:1012A00001112046009501F0CAFD002858D121689F
:1012B0000BF0FE000861FFF711FF21680546486941
:1012C0004969C0F3400094F83D20C1F380214FF0FC
:1012D000A00A12E0B9F1000F04D0FFF7FFFE411B96
:1012E000494501D984F83DA0216848694969C0F39E
:1012F000400094F83D20C1F38021084301D1A02A89
:10130000E8D184F83D7020684169C943890717D442
:10131000016841F400710160206841698069192306
:10132000012217492046009501F089FDC0B984F8D3
:101330003D7084F83C60002005B0BDE8F08F1DE0F2
:10134000016841F40071016021686FF480604861B8
:10135000192301220A492046009501F070FD08B1C9
:101360000320E9E74146039808F1010881428FD341
:1013700084F83D7084F83C600120DDE70220DBE763
:10138000020010000000FFFF2DE9FF4F83B09A46D6
:10139000DDE9118793460446DDF84090FFF79EFE95
:1013A000054694F83D00202872D1192301227B497B
:1013B0002046009501F043FD0028F5D194F83C004B
:1013C000012865D0012084F83C0020680168C90725
:1013D00003D1016841F0010101602068016821F436
:1013E00000610160222084F83D00402084F83E0026
:1013F00000262664C4F82490A4F82A806848E06295
:10140000608D2085CDE9007553465A4620460499E3
:1014100001F025FC28B1206C84F83C60042851D0F0
:1014200075E0208DDFF87C8168B1012814D0022896
:10143000206801681ED041F4806101602068416924
:10144000806900909BE02068416981690091016892
:1014500041F40071016092E02068016821F480612C
:10146000016072B62068416981690091016841F4A8
:1014700000710AE041F40061016072B620684169C0
:1014800081690091016821F48061016062B676E0B3
:1014900081E0032850D801280BD002283B464FF0AA
:1014A000000241462046009512D001F0C8FC70BBF6
:1014B00013E02A463946204601F036FD30B1206C53
:1014C000202824D0012007B0BDE8F08F20684BE031
:1014D00001F0B5FCD8B972B61BE02068016821F4B0
:1014E0008061016072B620680169606A421C6262B4
:1014F0000170208D401E2085608D401E60853B461A
:10150000002241462046009501F099FC08B10320D5
:10151000D9E72068016841F4007101602068016921
:10152000606A421C62620170208D401E2085608DC1
:10153000401E608562B6C9E72A463946204601F05A
:10154000F3FC0028BBD120680169606A421C62621A
:101550000170208D401E2085608D401E60852068B2
:101560004169C94349070AD40169606A421C626241
:101570000170208D401E2085608D401E6085208D6D
:10158000002886D1202084F83D0084F83E6084F84D
:101590003C60002097E7022095E700000200100061
:1015A0000000FFFF040001002DE9FF4F83B09A46C1
:1015B000DDE9118793460446DDF84090FFF78EFD84
:1015C000064694F83D0020287DD119230122434985
:1015D0002046009601F033FC00287CD194F83C00B2
:1015E000012878D0012084F83C0020680168C907F0
:1015F00003D1016841F0010101602068016821F414
:1016000000610160212084F83D00402084F83E0004
:1016100000252564C4F82490A4F82A803048E062AC
:10162000608D2085CDE9007653465A4620460499C0
:1016300001F08EFB80B3206C84F83C50042848D025
:1016400008E032463946204601F09FFC30B1206C5C
:10165000042839D0032007B0BDE8F08F606A411C30
:101660006162216800780861208D401E80B220856B
:10167000618D491E618521684A69D24352070BD4A6
:1016800068B1606A421C626200780861208D401E69
:101690002085608D401E6085208D0028D1D1324686
:1016A0003946204601F0A4FB0028D0D154F83D0B68
:1016B000016841F400710160202004F81E09E577FB
:1016C00065770020C7E706E02068016841F40071F3
:1016D00001600120BFE70220BDE70000020010000A
:1016E0000000FFFF10B586B000210091019102912A
:1016F00003910068174988422AD1174CE06940F4E9
:101700000010E061E06900F400100490A06940F06E
:101710000800A061A069694600F008000490C0209C
:10172000009012200190022003900C48FFF7F8FB74
:10173000E06940F40010E061E06900F400100490FA
:10174000206940F400102061206920F4001020611D
:1017500006B010BD0054004000100240000C0140D3
:1017600002488168027811448160704704000020BB
:10177000074810B5016841F010010160032000F036
:101780006BF8002000F006F800F024F8002010BDEF
:101790000020024070B50D4D04464FF47A71287850
:1017A000B1FBF0F00A490968B1FBF0F000F082FBF0
:1017B00048B9102C07D200222146501E00F02CF808
:1017C00000206C6070BD012070BD0000040000208E
:1017D00010000020094808B5816941F001018161CC
:1017E000816901F001010091C16941F08051C1613D
:1017F000C06900F08050009008BD00000010024059
:1018000000F01F02012191404009800000F1E0201A
:10181000C0F8001170470000F0B40E4B1B680C4676
:10182000C3F30223C3F10705042D00D90425191DB4
:10183000072901D2002300E0DB1E012606FA05F18C
:10184000491E214099409E40761E16403143F0BC0F
:1018500002F04BBA0CED00E0064900F00702086800
:101860004FF6FF03184040EA0220034A1043086085
:10187000704700000CED00E00000FA052DE9F0478C
:10188000DFF8548105460E46D8F8000000F0070046
:10189000B0420CD2D8F8001021F007013143C8F84B
:1018A0000010D8F8000000F00700B0426FD128689F
:1018B0004A4C810712D5400703D5606840F4E060C8
:1018C00060602878000703D5606840F4605060606D
:1018D0006068A96820F0F000084360602878C007BD
:1018E00044D06868012816D02168022816D08907DC
:1018F00000294CDA616821F0030101436160FFF7C0
:10190000EDFB6968074641F2883001290ED00229B3
:10191000814618D026E021688903E9E78901E7E7D5
:10192000FFF7DCFBC11B494501D918E0814660681F
:10193000C0F381000128F3D118E000BFFFF7CEFB10
:10194000C11B49450BD86068C0F381000228F5D15E
:101950000CE000BFFFF7C2FBC11B494502D90320C1
:10196000BDE8F087606810F00C0FF3D1D8F80010D4
:10197000404601F00701B1420BD9016821F007018F
:1019800031430160006800F00700B04201D001203F
:10199000E6E72878400705D56068E96820F4E0604C
:1019A000084360602878000706D56068296920F43C
:1019B000605040EAC100606000F036F86168084A93
:1019C000C1F30311515CC840064908600020FFF7CD
:1019D000E1FE0020C4E700000020024000100240A9
:1019E000646900081000002004480549006849683F
:1019F000044AC1F30221515CC84070471000002026
:101A000000100240746900080448054900684968EC
:101A1000044AC1F3C221515CC84070471000002045
:101A20000010024074690008F0B524A289B00FCA02
:101A300004AC84E80F0025A10FC98DE80F002748EA
:101A4000416801F00C02042A04D0082A04D024487A
:101A500009B0F0BD2348FBE704AAC1F38343C903DF
:101A6000D45C28D5C16AC26A01F00F011DF80110CB
:101A7000D20316D5C26AC06AC2F30312521CA2FB7B
:101A80000123C0F30320801CA0FB0415154F002682
:101A9000A1FB070C05FB07C501FB0651FEF774FB14
:101AA00003E010486043B0FBF1F09DF81D10A14227
:101AB000CED14008CCE70C486043C9E700000405DC
:101AC0000607080900000000000D000001020304E1
:101AD00005060708090A0B0C0D0E0F100010024036
:101AE00000127A0040787D0100093D002DE9F84F91
:101AF00004460078EA4DC00748D06868C0F381000A
:101B0000012807D06868C0F38100022809D16868FD
:101B1000C00306D52868800338D5A06800286FD098
:101B200034E0A068B0F5803F0BD010B1B0F5A02F25
:101B300011D0286820F480302860286820F48020A4
:101B400002E0286840F480302860A06888B1FFF780
:101B5000C5FA064609E0286840F480202860F0E7CE
:101B6000FFF7BCFA801B642878D828688003F7D573
:101B70000CE0FFF7B3FA064605E000BFFFF7AEFA48
:101B8000801B6428F0D828688003F7D42078C54EDD
:101B900080074FF001094FF000073CD5686810F04E
:101BA0000C0F07D06868C0F38100022809D168686B
:101BB000C00306D42868800715D5606901281FD1A5
:101BC00011E06069B8B1C6F80090FFF787FA804667
:101BD00006E000BFFFF782FAA0EB08000228C3D896
:101BE00028688007F6D52868A16920F0F80040EA47
:101BF000C10028600FE03760FFF770FA804607E009
:101C00002DE100BFFFF76AFAA0EB08000228ABD86D
:101C100028688007F6D4207800072ED5A248E1690D
:101C2000E9B1C0F80090FFF759FA804606E000BF1E
:101C3000FFF754FAA0EB0800022895D8686A8007DD
:101C4000F6D59A484FF4FA510068B0FBF1F00090D5
:101C500000BF0098411E0091FAD20EE0B0E007608C
:101C6000FFF73CFA804605E0FFF738FAA0EB0800E2
:101C7000022887D8686A8007F6D42078400763D5A1
:101C8000E8694FF00008C00009D4E86940F08050CE
:101C9000E861E8694FF0010800F080500090844846
:101CA0000168C90512D40168834641F4807101605E
:101CB000FFF714FA824605E0FFF710FAA0EB0A00DE
:101CC00064287DD8DBF80000C005F5D5206901281F
:101CD0000AD008B1052813D0286A20F00100286234
:101CE000286A20F0040002E0286A40F0010028621F
:101CF000206941F2883B98B1FFF7F0F982460BE08A
:101D0000286A40F004002862EEE700BFFFF7E6F91A
:101D1000A0EB0A01594553D8286A8007F6D50CE094
:101D2000FFF7DCF9824605E0FFF7D8F9A0EB0A01DE
:101D3000594545D8286A8007F6D4B8F1000F03D07A
:101D4000E86920F08050E861E06AD0B36968C903AF
:101D500007D56968C1F38101022902D1E96AC90383
:101D60007DD4022808D0E86A20F48030E862B766A3
:101D7000FFF7B4F980463BE02868C00005D5E86A63
:101D8000616B00F0F000884269D1B766FFF7A6F9F1
:101D9000804605E0FFF7A2F9A0EB0800642874D89C
:101DA00028680001F6D4E86A616B20F0F00008436F
:101DB000E862E86A216B20F470600843E86201E0A1
:101DC00063E018E0C6F86890FFF788F9804605E000
:101DD000FFF784F9A0EB0800642856D828680001B2
:101DE000F6D508E0FFF77AF9A0EB080064284CD894
:101DF00028680001F6D4206A90B36968C1F38101B4
:101E000002294AD00228376603D0FFF767F9044653
:101E10003EE0FFF763F9074605E000BFFFF75EF914
:101E2000C01B022831D828688001F7D4606AB0F559
:101E3000803F09D1E86A61680843E862E86AE168BE
:101E400020F00F000843E862D4E9090108436968FB
:101E500021F4741108436860C6F8609001E01CE04A
:101E600019E0FFF73BF9044605E000BFFFF736F93C
:101E7000001B022809D828688001F7D50BE000BFB5
:101E8000FFF72CF9001B022802D90320BDE8F88FC8
:101E900028688001F4D40020F8E70120F6E700006C
:101EA0000010024000004242800442421000002024
:101EB0000070004010B5401EB0F1807F01D30120BA
:101EC00010BD4FF0E02460610F21601701F00DFF9D
:101ED0000020A06107202061002010BD70477047DE
:101EE00010B590F83C20012A25D0012280F83C2032
:101EF000CA688C6822F4407222434C6822F48062E3
:101F000022430C6822F4006222430C6922F48052BE
:101F100022434C6922F4005222438C6922F480420D
:101F2000224322F40041026800232143516480F8D7
:101F30003C30002010BD022010BD30B590F83C2090
:101F4000012A20D0012280F83C20022380F83D3075
:101F500003685C6824F070045C6003685C680D686A
:101F60002C435C6003689C6824F080049C600368D8
:101F70009C6849680C439C6080F83D20002180F8F3
:101F80003C10084630BD022030BD10B5040003D01F
:101F900094F83D0010B107E0012010BD002084F846
:101FA0003C00204600F00CF8022084F83D00211D82
:101FB000206801F0D9FF012084F83D00002010BD09
:101FC00008B5204A01682048914207D1816941F44F
:101FD00000618161806900F4006009E01B4A914260
:101FE00008D1C16941F00201C161C06900F002007D
:101FF000009008BD164A91420ED1C16941F010010E
:10200000C161C069002200F010000090012136205B
:10201000FFF702FC362010E00E4A9142E9D1C16977
:1020200041F02001C161C069002200F02000009051
:1020300002213720FFF7F0FB3720BDE80840FFF70B
:10204000DFBB0000002C01400010024000040040F3
:1020500000100040001400400168CA6842F001020C
:10206000CA600068016841F001010160002070470A
:1020700070B5044690F83C00012817D0012584F87B
:102080003C50022084F83D002068826822F07702EC
:1020900022F47F4282600868502837D00DDC202867
:1020A00059D005DC88B3102841D151E0022070BD21
:1020B000302853D040283AD13FE060282ED07028F5
:1020C0000BD0B0F5805F03D0B0F5005F2FD110E0EA
:1020D0002068816821F0070115E0CB68D1E9012172
:1020E000206801F08AFF2168886840F077008860E6
:1020F0001DE0CB68D1E90121206801F07EFF206856
:10210000816841F48041816011E01EE0CA6849683D
:10211000206802F027F85021206806E0CA68496864
:10212000206802F030F86021206801F070FF84F828
:102130003D50002084F83C0070BDCA6849682068A2
:1021400002F010F840212068EFE700212068ECE75A
:1021500010212068E9E720212068E6E73021206887
:10216000E3E72DE9F0410D46040003D094F83D006B
:1021700018B108E00120BDE8F081002084F83C009F
:10218000204600F039F8022084F83D00206881687C
:1021900021F007018160211D206801F0E5FE226821
:1021A00090689169166A2B68AF69034340F2033067
:1021B000814341EA0721A868EF6908434FF6FC41D3
:1021C0008843E96840EA0720014328692F6A000133
:1021D00040EA0730084369686D6926F0AA0646EAB6
:1021E00005152943936022689061206801620120EF
:1021F00084F83D000020BEE700B585B000210091C5
:1022000001910291039101681E48B1F1804F22D0E3
:102210001D4A91421DD1C16941F00401C161C169EA
:1022200001F004010491816941F02001816180691C
:10223000694600F0200004904FF44050009013488D
:10224000FEF76EFE1248416841F0E06141F48051B2
:10225000416005B000BDC16941F00101C161C169C2
:1022600001F001010491816941F0040181618069FB
:10227000694600F004000490032000900548FEF732
:102280004FFEE6E700100240000800400014014045
:10229000000001400008014010B50446006891B1FB
:1022A000042904D00122002101F09CFE20680122B3
:1022B0005FF0040101F096FE2068016841F0010121
:1022C0000160002010BD01220021F3E7704770B5C6
:1022D0000446006801694FF00005C943890715D419
:1022E000C168C943890711D4E91E01610120207723
:1022F000206880698007204602D0FFF7E7FF04E0EE
:1023000000F0F4F8204600F076F92577206801699E
:10231000C943490717D4C168C943490713D46FF0AB
:1023200004010161022020772068806910F4407F59
:10233000204602D0FFF7CAFF04E000F0D7F820469D
:1023400000F059F9257720680169C943090716D4B7
:10235000C168C943090712D46FF008010161042064
:1023600020772068C0698007204602D0FFF7AEFFC3
:1023700004E000F0BBF8204600F03DF92577206826
:102380000169C943C90617D4C168C943C90613D432
:102390006FF010010161082020772068C06910F4F7
:1023A000407F204602D0FFF791FF04E000F09EF846
:1023B000204600F020F9257720680169C943C90744
:1023C00008D1C168C943C90704D1891E01612046EB
:1023D00000F02AF920680169C943090609D4C168D7
:1023E000C943090605D46FF0800101612046FFF75B
:1023F00075FD20680169C943490609D4C168C9430C
:10240000490605D46FF040010161204600F03AF919
:1024100020680169C94389060BD4C168C94389068C
:1024200007D46FF0200101612046BDE87040FFF73E
:1024300056BD70BD10B586B000210091019102918A
:102440000391234A01682348022491421BD18169E8
:1024500041F0400181618069694600F040000490CC
:102460004FF4D440CDE900041B480394FEF758FD17
:102470001A48416821F0C00141F0E06141F0C0011B
:10248000416006B010BD164A9142FAD1816941F00F
:1024900004018161816901F004010491816941F0C5
:1024A000080181618069694600F008000490C0203D
:1024B000CDE900040B480394FEF732FD0320CDE97B
:1024C0000004694608480394FEF72AFDD9E7000096
:1024D000002C0140001002400018014000000140A3
:1024E0000004004000080140000C0140704770B536
:1024F000044690F83C000D4601280DD0012684F8D2
:102500003C60022084F83D0042B1042A18D0082A19
:102510002AD00C2A4DD139E0022070BD206801F08C
:102520007FFD2068816941F008018161206881692F
:1025300021F004018161206881692A69114311E059
:10254000206801F095FD2068816941F40061816196
:102550002068816921F480618161206881692A692C
:1025600041EA0221816124E0206801F0ADFD20688C
:10257000C16941F00801C1612068C16921F004010D
:10258000C1612068C1692A69114311E0206801F026
:10259000C7FD2068C16941F40061C1612068C1695B
:1025A00021F48061C1612068C1692A6941EA022180
:1025B000C16184F83D60002084F83C0070BD10B516
:1025C000040003D094F83D0010B107E0012010BDD5
:1025D000002084F83C00204600F00CF8022084F82B
:1025E0003D00211D206801F0BFFC012084F83D0062
:1025F000002010BD7047704710B5044600680122E6
:1026000001F0F0FC07492068884203D1416C41F495
:10261000004141642068016841F00101016000202F
:1026200010BD0000002C014010B5104904460068A0
:102630000968884206D14FF0804001F027FE0C481F
:1026400001F024FE0B492068096888420CD100F093
:10265000C3FC094800684068084901220870BDE8C9
:102660001040074800F09EB910BD00004C04002047
:10267000000800408C0400204C05002000000020D1
:10268000CC0400207047704770B50268044610689B
:10269000D168536910F00F0F50D003F0010501F419
:1026A000907635435DD0C20705D0CA0503D5E26BED
:1026B00042F00102E263420705D5DA0703D0E26B7C
:1026C00042F00202E263820705D5DA0703D0E26B2B
:1026D00042F00402E263020705D5DA0703D0E26B99
:1026E00042F00802E263E26B002A33D0800604D590
:1026F000880602D5204601F001FE20684069E16BA2
:10270000C0F38010090700D428B3204601F0E8FD8B
:102710002068416949061AD5416921F040014161AB
:10272000606BA0B11B494163606BFEF74FFB002853
:1027300010D0606B416BBDE870400847830610D530
:102740008B060ED52046BDE8704001F0D7BD20466F
:10275000FFF799FF70BD2046FFF795FF0020E0636B
:1027600070BD030606D50B0604D52046BDE87040B3
:1027700001F0C8BE4006F3D54806F1D5D168204621
:1027800021F04001D160202184F8391000F029F9AE
:1027900070BD0000D142000870B5040004D094F868
:1027A0003900002510B106E0012070BD84F83850D2
:1027B000204600F023F8242084F839002068C168FE
:1027C00021F40051C160204601F0E4FD2068016958
:1027D00021F4904101612068416921F02A014161A1
:1027E0002068C16841F40051C160E563202084F88D
:1027F000390084F83A00002070BD0000F0B585B0C3
:10280000002400940194029403940368424F022030
:1028100042490322424D4602BB4225D18B6943F413
:1028200080438B618B6903F4804304938B6943F08D
:1028300004038B618969039201F004010491010290
:10284000CDE9001069462846FEF76AFBCDE9006431
:10285000694628460294FEF763FB002203212520E7
:10286000FEF7DAFF252028E02E4FBB4229D1CB69A5
:1028700043F40033CB61CB6903F4003304938B69D9
:1028800043F004038B618969039201F00401049110
:102890000421CDE9001069462846FEF741FB0820D7
:1028A000CDE90004694628460294FEF739FB002270
:1028B00011462620FEF7B0FF2620FEF7A1FF05B047
:1028C000F0BD194DAB42FAD1CB6943F48023CB6103
:1028D000CB6903F4802304938B6943F008038B6175
:1028E0008969124D01F00801CDE90321CDE90060AD
:1028F00069462846FEF714FBE814CDE90004694652
:1029000028460294FEF70CFB002211462720FEF712
:1029100083FF2720D1E7000000380140001002406B
:10292000000801400044004000480040000C014005
:1029300090F83A30202B22D1F9B1F2B190F838302A
:10294000012B1CD081628285C2850021C1632222B5
:1029500080F83A2080F838100168CA6842F4807222
:10296000CA6001684A6942F001024A610068C168B0
:1029700041F02001C1600020704701207047022013
:102980007047000000680449884204D101220349CD
:102990000348FFF7CDBF704700440040CE01002040
:1029A0000C05002090F83930202B18D1A9B1A2B124
:1029B00090F83830012B12D001628284C284002149
:1029C000C163212280F8392080F838100068C1687E
:1029D00041F08001C1600020704701207047022053
:1029E0007047704703480178001D01700021416065
:1029F00070470000D00100202DE9F041144E154F22
:102A0000154D0024307807F8340007EBC4017368D3
:102A1000C4EBC4004B6000EB04100A6805EB8000B7
:102A20000E4900F01DF8641C042CEBDB0B4800F091
:102A300091F80024C4EBC40000EB041005EB800007
:102A4000064900F089F8641C042CF3DBBDE8F08132
:102A5000D4010020AC06002050090020C00A00204C
:102A600030B500245FFA82F2C4EBC40505EB04150F
:102A7000641C00F82520042CF6DB4B6030BD000000
:102A80002DE9F05F00212B48FFF7B6FD042129480E
:102A9000FFF7B2FD08212748FFF7AEFD0C212548BE
:102AA000FFF7AAFD244C4FF07E5060632348A063DB
:102AB0002348E0642348206504F10C0001F0AAF9E2
:102AC0000025A561E56125621F486564C4E9150517
:102AD000DFF87C90E565DFF85C801C4E2C4609F140
:102AE000100A09F1200B00BFC4EBC40000EB041076
:102AF00006EB800706F8205007F118003D220D492B
:102B0000FDF783FB98F83D0087F85500A100B965F3
:102B100059F8240038615AF824207A615BF82400BF
:102B2000B860B86934314250641C042CDCDBBDE869
:102B3000F09F0000CC030020C00A0020000080BFEE
:102B40000D3D0008153E0008000040C0500900205F
:102B5000BC02002000F066B870B504460D468068DF
:102B6000FDF7EAFDE96BFDF7CCFBFDF737FE002230
:102B70002B4BFDF7E9FC4FF0FF32FDF7C6FDFDF7EB
:102B800059FE6060E0684FF4FA71884200DC084644
:102B90004FF42F71E060884200DB0846E060207847
:102BA00030B9A06DA26920F00300343021691150C2
:102BB0002078012806D1A06DD4E9051220F0030089
:102BC000343011502078022812D12069FDF7B4FD6D
:102BD0006168FDF73EFBFDF7C9FDE0602046FEF7AA
:102BE000CDF8A06DA26920F003003430E1681150E7
:102BF0002078032812D16069FDF79EFD6168FDF71A
:102C000028FBFDF7B3FDE0602046FEF7B7F8A06DA6
:102C1000A26920F003003430E168115070BD00005B
:102C2000000089C0416840F80C1F50F8041C416046
:102C3000016C0847FEE701684A69D24352050CD48B
:102C40006FF480624A6104210164002140F8301F62
:102C500020224273017301207047002070472DE944
:102C6000F84F0446006889460B9D01689846174650
:102C700041F4806101602068016841F48071016065
:102C800000954FF0011A0022514620460A9B00F0A1
:102C9000D6F8F0BB216809F0FE0008610AF1010BCB
:102CA0002B46594620460A9A00F0FAF818B1206CD3
:102CB000042812D03AE020684169806900902A46D1
:102CC00020460A9900F061F950B1206C04282DD1FA
:102CD0002068016841F4007101600120BDE8F88FAF
:102CE000FEB2B8F1010F09D02168380A08612A46FE
:102CF00020460A9900F049F90028E6D120680661CB
:102D00002A4620460A9900F040F90028DDD12068C3
:102D100000E00BE0016841F4807101600095002241
:102D2000514620460A9B00F08AF808B10320D5E7F7
:102D3000216809F0FF0040F0010008612B46594668
:102D400020460A9A00F0ACF80028B0D1C6E700008F
:102D50002DE9F843044600680D46DDE9089701684F
:102D60009846164641F4807101604B4600224FF0B0
:102D700001112046009700F062F8E8B9216805F0DB
:102D8000FE0008613B464A461849204600F088F894
:102D900028B1206C04280FD10120BDE8F8832068F9
:102DA0004169806900903A464946204600F0EDF8B6
:102DB00020B1206C042813D00320EEE7F5B2B8F15F
:102DC000010F09D02168300A08613A464946204679
:102DD00000F0DBF80028ECD1206805610020DCE77A
:102DE0002068016841F400710160D5E7020001002C
:102DF00070B516460D4604461AE02046FFF71BFF45
:102E000008B1012070BD681C12D025B1FEF766F92B
:102E1000801BA8420CD954F8400F40F0200044F821
:102E2000100900202060202161732073032070BDF1
:102E300020684069C0434007DFD4002070BD2DE901
:102E4000F0471E4690460D460446C1F30747DDF89D
:102E5000209012E0701C10D02EB1FEF73FF9A0EBCD
:102E60000900B04209D9002044F8300F20216173D5
:102E7000A07320730320BDE8F0872068012F0AD0DB
:102E8000806925EA00000004000C06D000214145BD
:102E9000E0D00020EFE74069F3E70121F7E7000009
:102EA0002DE9F0479A4691460D46044600264FF01C
:102EB0002008C1F307472AE020684069C043400565
:102EC00012D42068016841F40071016021686FF438
:102ED0008060486104202064266384F83D8084F883
:102EE0003C600120BDE8F087B9F1FF3F0FD0B9F198
:102EF000000F05D0FEF7F2F8A0EB0A01494506D90C
:102F000044F8306F84F80D8026730320EAE72068C8
:102F1000012F07D0D0F8180025EA00000004000CAB
:102F2000E0D0C9E74069F7E72DE9F0410025904678
:102F30000E460446202721E04069C043C0060CD459
:102F400021686FF0100048612564256384F83D70A6
:102F500084F83C500120BDE8F0812EB1FEF7BEF8A8
:102F6000A0EB0800B04209D954F8400F40F020000F
:102F700044F80409677025700320ECE72068416974
:102F8000C9434906D8D40020E5E770B516460D467A
:102F900004461AE02046FFF74EFE08B1012070BD3E
:102FA000681C12D025B1FEF799F8801BA8420CD9F5
:102FB00054F8400F40F0200044F810090020206031
:102FC000202161732073032070BD20684069C043D5
:102FD0000006DFD4002070BD10B500F047F800F007
:102FE0007DF8BDE8104000F0B3B800007FB504469E
:102FF0004FF4FA70FDF782FFC822012103A88DE883
:103000000700A1B2012375221748FEF7BDF99DF80C
:103010000C00682803D04FF0FF3004B070BD0025CD
:103020008DF80C50A0B203AB01226B2100F020FF01
:1030300007208DF80C00A0B203AB0122192100F08B
:1030400017FF8DF80C50A0B203AB01221C2100F039
:103050000FFF8DF80C50A0B203AB01221B2100F032
:1030600007FF0020D9E70000F80200202DE9FC410D
:10307000184C6B460622A0883B2180B200F0D0FE9F
:103080002070BDF8000040BA00B2FDF755FB0546C0
:10309000BDF80200104C40BA00B2FDF74DFB80466F
:1030A000BDF8040040BA00B2FDF746FB06466FF0DB
:1030B0000D0739462846FDF794F920603946404609
:1030C000FDF78FF9606039463046FDF78AF9A06058
:1030D000BDE8FC81DC010020CC0600202DE9FC418C
:1030E000184C6B460622A088432180B200F098FE5F
:1030F0006070BDF8000040BA00B2FDF71DFB054648
:10310000BDF80200104C40BA00B2FDF715FB804636
:10311000BDF8040040BA00B2FDF70EFB0B4F0646A7
:1031200039462846FDF71FF9E06039464046FDF76D
:103130001AF9206139463046FDF715F96061BDE89E
:10314000FC810000DC010020CC06002000000343CD
:1031500038B50C4C6B460222A088412180B200F0A9
:103160005FFEA070BDF8000040BA00B2FDF7E4FABF
:10317000054C0649FDF7F7F80549FDF76AF8A06127
:1031800038BD0000DC010020CC0600200000AA436E
:10319000B81E124200B585B0002001900290039045
:1031A0001448816941F004018161816901F00401E1
:1031B0000491816941F008018161816901F0080190
:1031C0000491816941F040018161816901F0400110
:1031D0000491816941F0200181618069694600F0B4
:1031E000200004904FF4704000900348FDF798FED3
:1031F00005B000BD00100240000C01400D4810B5A4
:103200000B4901600C49416000214FF4804281600C
:10321000C0E9031241618161C1610162FDF764FF90
:10322000002803D0BDE81040FDF7CEBD10BD000062
:1032300000540040F8020020A086010010B594B0B0
:1032400000240E940F941094119412941C2168463B
:103250001394FCF7F3FF1C2107A8FCF7EFFF344899
:10326000324901602321C0E9011440F2CF71C0E965
:10327000031444618461FEF788FE08B1FDF7A4FDE4
:103280004FF480500E900EA92948FEF7F1FE08B1C8
:10329000FDF79AFD2648FFF792F908B1FDF794FD76
:1032A000129412A922481394FEF747FE08B1FDF7C5
:1032B0008BFD6020CDE900040294039404940594EE
:1032C000002269461A480694FFF711F908B1FDF784
:1032D0007BFD042269461648FFF709F908B1FDF79E
:1032E00073FD082269461248FFF701F908B1FDF79E
:1032F0006BFD0C2269460E48FFF7F9F808B1FDF79F
:1033000063FD0794089409944FF400500A94CDE9A2
:103310000B4007A906480D94FEF7E2FD08B1FDF742
:1033200053FD0348FFF786F814B010BD002C014090
:103330004C03002010B58CB024216846FCF77EFFBA
:103340000024154809944FF080410A94C0E9001404
:103350004FF6FF71C0E90241046184610120CDE9AB
:103360000004CDE902040494CDE9054007946946C0
:1033700009480894FEF7F5FE08B1FDF725FD09940C
:1033800009A905480A94FEF7D8FD002801D0FDF7E9
:103390001BFD0CB010BD00008C03002010B58EB0DA
:1033A00000240794089409940A940B941C216846FD
:1033B0000C94FCF743FF2A4828490160B321C0E977
:1033C000011440F2CF71C0E903148461FEF7DDFD02
:1033D00008B1FDF7F9FC4FF48050079007A9204889
:1033E000FEF746FE08B1FDF7EFFC1D48FFF7E7F8D2
:1033F00008B1FDF7E9FC0B940BA919480C94FEF7F2
:103400009CFD08B1FDF7E0FC6020CDE900040294CA
:103410000022694612480494FFF769F808B1FDF7E5
:10342000D3FC042269460E48FFF761F808B1FDF7A6
:10343000CBFC082269460A48FFF759F808B1FDF7A6
:10344000C3FC0C2269460648FFF751F808B1FDF7A6
:10345000BBFC0348FEF7EEFF0EB010BD00040040B9
:10346000CC03002010B58CB024216846FCF7E6FEA2
:1034700000241548099413490A94C0E900144FF632
:10348000FF71C0E90241046184610120CDE90004BB
:10349000CDE902040494CDE90540079469460A4841
:1034A0000894FEF75EFE08B1FDF78EFC099409A9A9
:1034B00005480A94FEF741FD002801D0FDF784FC81
:1034C0000CB010BD000800400C0400201CB5002406
:1034D0000E4800940C49019401604721C0E9011491
:1034E00042F20F718461C160FEF74FFD08B1FDF734
:1034F0006BFC0094694605480194FEF71EFD002808
:1035000001D0FDF761FC1CBD001000404C04002000
:103510001CB500240E4800940C4901940160472119
:10352000C0E9011442F20F718461C160FEF72DFD04
:1035300008B1FDF749FC0094694605480194FEF77F
:10354000FCFC002801D0FDF73FFC1CBD001400402E
:103550008C0400200C4810B50A4901604FF4165144
:103560004160002181600C22C160C0E904128161C8
:10357000C161FFF711F9002803D0BDE81040FDF745
:1035800023BC10BD00380140CC0400200C4810B50D
:103590000A4901604FF416514160002181600C22FC
:1035A000C160C0E904128161C161FFF7F5F800282C
:1035B00003D0BDE81040FDF707BC10BD004400403B
:1035C0000C0500200C4810B50A4901604FF4165153
:1035D0004160002181600C22C160C0E90412816158
:1035E000C161FFF7D9F8002803D0BDE81040FDF70E
:1035F000EBBB10BD004800404C050020FEE700007A
:103600002DE9FE431E48A0F12804027822700169CA
:103610002161436863608768A760C668A0F11405EC
:10362000E660894698462A704FF07E50FCF763FEAC
:10363000C5E90360C5E90187CDE90076CDF80890BA
:103640004346104910482268FDF763FB1C3407CC41
:103650008DE8070054E905230A490C48FDF759FB9A
:10366000084A0A490848FDF760FB0649064800F089
:103670006FF903B00349BDE8F043044800F068B9AE
:10368000980600203C08002054070020C8070020AE
:103690002DE9F047234CA06848B904F12400E16803
:1036A000C1602169016101461F4802F009FBA06861
:1036B000322801DA401CA060D4E903121A4802F053
:1036C00069FA194F05466C37A068184907F1740666
:1036D0004FF0FF3A06F1740832280DDA8946E068A7
:1036E000FCF741FE0546F86049462069FCF73BFEC1
:1036F0000146F06028460CE089462868FCF733FE56
:103700000446F86049466868FCF72DFE0146F06003
:103710002046FCF79EFD5146FCF763FEC8F86000AA
:10372000BDE8F087E4010020E8060020008009459C
:1037300010B50222074B1146074801F0A3FC054BC8
:10374000022205481033BDE810401146083001F050
:1037500099BC00009C0200202C0700202DE9F047B6
:1037600018214A48FEF798FD18214948FEF794FDB4
:1037700048496FF00100096808614648FEF76CFC93
:10378000FFF7D6FF444C454F4FF07E56DFF81491BB
:10379000DFF80C81C4E90C6704F10800C4E9128960
:1037A000143400F037FB00253F482560C4E9015080
:1037B0003E48E562C4E90F056564C4E91E6704F18B
:1037C0005000C4E9248900F025FBE565256665669F
:1037D0003748C4F88850C4E92605C4F8A050C4E9A5
:1037E000356704F1AC00C4E93B8900F013FBC4F871
:1037F000B850C4F8BC50C4F8C05044F8E45F2D4839
:1038000020614FF0414060612B48A06100212B48AE
:10381000FEF7F2FE04212948FEF7EEFE08212748B4
:10382000FEF7EAFE0C212548FEF7E6FE1A4E0120BF
:10383000E83E06F1740735703D707060801E786058
:103840003D221E4906F11000FCF7DFFC1B4C94F8EA
:103850003D0086F84D003D22214606F18400FCF72C
:10386000D4FC94F83D0087F84D000420C6E91450BC
:10387000082038650C2078652068456320688563DA
:103880002068C56320680564BDE8F0878C030020CC
:103890000C0400204C0400203C080020000080BFE5
:1038A0000D3D0008153E0008CDCCEC403333B3404D
:1038B0005C8FC2BE0000E0C0CDCCCC3D4C030020EC
:1038C0000D4801680D4869B10D4B0E4A02290FD011
:1038D000012901D0032904D10B490365C261C0F855
:1038E000AC107047094901650949C1610949F6E70A
:1038F00003650949C261F2E7D00100203C080020BD
:103900009A9999400000E0407B14AEBE6666A640DE
:103910009A99E940A470BDBE3333B3BE0749084845
:103920000A782AB9074BD0F8BC20DA6001220A7065
:10393000054901650549C16100F09AB9CC01002033
:103940003C080020980600200000C0409A99F940E9
:103950002DE9F84F0446DFF8BC910D46886B4946C7
:10396000FCF7CFFCFCF73AFFDFF8ACB14FF0663A5A
:1039700052465B46FCF7E8FDFCF75CFF8046A0651D
:103980006068FCF7E2FE06460F464946D5F8F000AF
:10399000FCF7B7FCFCF722FF52465B46FCF7D4FD70
:1039A0003B463246FCF7D0FDFCF744FF014620665B
:1039B0004046FCF74EFCFCF7D9FEDFF86081054677
:1039C000E066D8F80400FCF7C0FE064640460F4605
:1039D00000684FF0C04A4FF0804B002D20DB85423D
:1039E00043DA2846FCF7B1FE054652464C4B00919F
:1039F000FCF7AAFD81468A46284600225B460099CC
:103A000002F00AFA4FF00052464BFCF79DFD4A4681
:103A10005346FCF7F2FC32463B46FCF7EEFC1FE057
:103A2000404285422CDD2846FCF78FFE00225B4693
:103A300002F0F2F94FF000523A4BFCF785FD814657
:103A40000D46E06EFCF781FE5246354BFCF77CFDDF
:103A50004A462B46FCF772FD32463B46FCF76EFDAC
:103A6000FCF79DFEE06600280ADBE06E40F26C7118
:103A7000884202DB00202C4909E0FCF766FE06E0E4
:103A8000E06E40F26C71C842F7DC00202749FCF779
:103A900086FEE06600281ED0014601DAC1F1000171
:103AA00091FBF0F2A266002800DA404220672378FA
:103AB000002193B1B2F1FF3F24D00AB1012A1AD0FC
:103AC000216D236921F003013431D8F800205A50C8
:103AD000D8F8001007E00022E4E7206D226920F00A
:103AE000030034301150606D226920F0030034303F
:103AF0001150BDE8F88F226D236922F003023432A1
:103B00009850F0E7206D226920F003003430115006
:103B1000216FE8E70000FA446666EE3FE40100200A
:103B2000B9A7E1BFB1EA553F00B09D4000B09DC0CC
:103B30002DE9F0473B4A3C4C3C4D107830B900F041
:103B400097F8D4F8BC00E860012010703848DFF81E
:103B5000E480DFF8E4900168002011B3022920D04E
:103B6000012901D003291AD19178344B344E354ABA
:103B7000612945D0622945D0334F632949D0642952
:103B80000DD16860E868FCF729FE42464B46FCF719
:103B9000D5FC00BFFCF74EFEE8602765E661BDE896
:103BA000F0879178294E2A4A2A4B612916D062293A
:103BB00016D0294E294F632919D06429EFD16860A6
:103BC000E868FCF70BFE42464B46FCF7B7FC00BF2B
:103BD000FCF730FEE860E7612665E0E7204800E09A
:103BE000204868602665C4F8AC30E261D7E76860B9
:103BF000E868FCF7F3FD42464B46FCF7FEFBE7E7BF
:103C0000194800E019486860E6612365C4F8AC20F3
:103C1000C5E76860E868FCF7E1FD42464B46FCF703
:103C2000ECFBB7E7CC0100203C0800209806002000
:103C3000D0010020FCA9F1D24D62503F666696404B
:103C40000000E0407B14AEBE9A9999400000A0406D
:103C50009A99E940EC51B8BE6666A6406666E640B1
:103C60000AD7A3BD8FC2F53D8FC275BDCDCCCC3D6B
:103C70000548012101704FF07C5101610349416009
:103C80000021816070470000980600200AD7A33CFD
:103C900070B5124CE068FCF769FD60612069FCF7C3
:103CA00065FDA0610E48C068FCF760FDFCF744FDAF
:103CB0000C4D2946FCF725FBFCF758FDE061084850
:103CC0007430C068FCF752FDFCF736FD2946FCF75E
:103CD00018FBFCF74BFD206270BD0000E4010020E2
:103CE000540700200080094570470907090E002885
:103CF00006DA00F00F0000F1E02080F8141D704794
:103D000000F1E02080F80014704770472DE9F04181
:103D10000446806820F00040FCF760FD0546206DF9
:103D20000E4680F00040FCF759FD2A463346FCF76A
:103D30000BFC01F03FFD0022354BFCF702FC064670
:103D40000D46E06CFCF74AFD32462B46FCF7FCFBC7
:103D500006460D46A06CFCF741FD32462B46FCF7AB
:103D60004CFBFCF767FD0646E060D4E90001FCF778
:103D7000C2FA05460146A0603046FCF7C2FA064684
:103D8000A061D4E90D10FCF7BCFA07463146206962
:103D9000FCF7B7FAE169FCF75CFA3946FCF759FA27
:103DA0000021E061B0F17C5F04DD15F1FF4F01D32C
:103DB000E16105E0B0F13F4F02D9B5F5000FF7DA48
:103DC0003046E16BFCF797FA6169FCF79AFA2062DA
:103DD00005463046E169FCF73CFA2946FCF739FA1A
:103DE0006062A16AFCF74CFD01D2A06A07E0E16ABB
:103DF000606AFCF73BFD01D2E06A00E0606A206384
:103E0000616AFCF778FA6063A069E063BDE8F0815D
:103E10000000F03F0021C16101627047704700005F
:103E20003EB5C824CDE900320A460146029401237A
:103E30000248FDF7A9FA40B23EBD0000F80200209A
:103E400010B50124C823012221460748FDF7ECF9EB
:103E500028B1641CE4B2FF2CF4D3D02010BD034879
:103E60008480204610BD0000F8020020DC01002004
:103E70003EB5C824CDE900320A460146029401232A
:103E80000248FDF791FB40B23EBD0000F802002061
:103E9000FDF766BC30B593B038216846FCF7CEF923
:103EA00014210EA8FCF7CAF9012420040421CDE94D
:103EB00002010225CDE908500094019005944FF4C9
:103EC000E010CDE90A054FF4C0600C9040200D9041
:103ED0006846FDF70BFE0F20CDE90E050020A1027C
:103EE000CDE91001129002210EA8FDF7C7FC02488F
:103EF000046713B030BD0000000042421048016862
:103F000041F00101016041680E4A114041600168C1
:103F10000D4A11400160016821F48021016041686F
:103F200021F4FE014160016821F0A05101604FF4CD
:103F30007F0181600021C1620449C00308607047AD
:103F4000001002400000FFF0FFFFF6FE08ED00E069
:103F50000148FEF7BCB900004C0400200148FEF700
:103F6000B6B900008C040020F0B50268194B1A4C59
:103F70001A4D1B4E4FF08047984207D0B84205D0EB
:103F8000A04203D0A84201D0B04204D122F0700C6C
:103F90004A6842EA0C02984207D0B84205D0A042D3
:103FA00003D0A84201D0B04203D122F44074CA68C1
:103FB000224322F080044A69224302608A68C26276
:103FC0000A688262984201D1096901630121416155
:103FD000F0BD0000002C014000040040000800403B
:103FE000000C004010B50123046A8B409C4304621E
:103FF000036A8A401343036210BD10B5846842EA25
:10400000032224F47F440A432243826010BD826865
:1040100022F070020A4342F00701816070470000FD
:1040200030B5026A22F001020262026A43688469C2
:1040300024F073050C682C4322F002058A682A4399
:104040000A4DA8420BD122F00805CA6823F4407338
:104050002A434D6922F004021D438B692B434360C0
:10406000846149684163026230BD0000002C014058
:1040700030B5026A22F010020262026A4368846963
:104080000D6824F4E64444EA05248D6822F02002F9
:1040900042EA05120B4DA8420ED1CD6822F08002F3
:1040A00042EA05124D6923F4406343EA85038D69B2
:1040B00022F0400243EA85034360846149688163DA
:1040C000026230BD002C014030B5026A22F48072D9
:1040D0000262036A4268C46923F4007324F0730522
:1040E0000C682C438D6843EA05230C4DA8420ED181
:1040F000CD6823F4006343EA05234D6922F440525E
:1041000042EA05128D6923F4806342EA0512426097
:10411000C4614968C163036230BD0000002C0140E6
:1041200030B5026A22F480520262046A4268C369AE
:104130000D6823F4E64343EA05238D6824F4005414
:1041400044EA0534064DA84204D14D6922F4804268
:1041500042EA85124260C36149680164046230BD6D
:10416000002C014010B5036A046A24F001040462C3
:10417000846924F0F00444EA021423F00A020A439A
:104180008461026210BD10B5036A23F0100303625C
:104190008369046A23F4704343EA023224F0A003E3
:1041A00043EA01118261016210BD000010B5144C98
:1041B000207818B9FCF7D6FC0120207000F0CCFE66
:1041C00001F03AFCFCF7F4FCFCF724FD6168206B7D
:1041D000FCF797F80B4A20F00041914200DA0020EA
:1041E000094C014662681046FCF733F8606002F043
:1041F000A7FB00F0CDF9BDE81040FCF73DBD000085
:1042000014000020CDCCCC3D640600200F4810B532
:10421000006842680E490F48682A08D0007865286F
:1042200009D040B1662804D0672806D007E066228E
:104230000270012002E0002000E002200860FEF78A
:10424000D1FBBDE81040FEF7D7BB00004C050020B5
:10425000D0010020CE01002010B5FFF731FB074848
:104260008078652806D028B1FFF762FCBDE81040D1
:10427000FFF7C6B9FFF752FBF8E70000CC010020BA
:10428000416A47F6FF724262881A704770B5044669
:10429000FFF7F6FFFCF750FA0A490B4D0B4AB4F151
:1042A000804F0AD0944202D1FCF72BF82861FFF727
:1042B000EFF9BDE87040FFF7EBBCFCF722F8E860CF
:1042C000F5E7000000004842E4010020000800403B
:1042D00010B5406A0021C185C184FEF7D4F910BD34
:1042E0000168CA6822F49072CA6001684A6922F0C3
:1042F00001024A61202180F83A10704710B590F809
:104300003A10222901D0022010BD8168B1F5805FEA
:1043100011D00169002901681FD0496801F07F03AD
:10432000816A4A1C82620B70C18D491E0904090C06
:10433000C18518D02BE00269816A002A02685268A0
:1043400005D0D2B20A80816A491C8162ECE7C2F3CF
:1043500008020A80816A891CF7E74A68816A4B1C57
:1043600083620A70E0E70168CA6822F02002CA602E
:104370000168CA6822F48072CA6001684A6922F042
:1043800001024A61202180F83A10FEF7FBFA002072
:1043900010BD00002DE9F041044600680169E268A3
:1043A00021F44051114301612169A068084361690A
:1043B00008432168CA6841F20C639A430243CA6009
:1043C00020684169A26921F44071114341614C495F
:1043D00020686425322688423CD1FDF715FB00EBAE
:1043E000C00101EB001061688900B0FBF1F7FDF737
:1043F0000BFB00EBC00101EB00106168B0468900C7
:10440000B0FBF1F0B0FBF5F06FF01801484307EB9B
:10441000800106EB0110B0FBF5F000F0F006FDF7AF
:10442000F3FA00EBC00101EB001061688900B0FBFA
:10443000F1F0B0FBF5F006EB0016FDF7E5FA00EB46
:10444000C00101EB001061688900B0FBF1F7FDF7D6
:10445000DBFA3BE0FDF7C8FA00EBC00101EB00100E
:1044600061688900B0FBF1F7FDF7BEFA00EBC0010F
:1044700001EB00106168B0468900B0FBF1F0B0FBC1
:10448000F5F06FF01801484307EB800106EB0110CF
:10449000B0FBF5F000F0F006FDF7A6FA00EBC00166
:1044A00001EB001061688900B0FBF1F0B0FBF5F0A2
:1044B00006EB0016FDF798FA00EBC00101EB0010C7
:1044C00061688900B0FBF1F7FDF78EFA00EBC001DF
:1044D00001EB001061688900B0FBF1F0B0FBF5F072
:1044E0006FF01801484307EB800108EB0110B0FBA7
:1044F000F5F0216800F00F0030448860BDE8F081DD
:104500000038014090F83910212901D0022070476D
:104510008168B1F5805F016A0BD04A1C02620268B3
:1045200009785160C18C491E0904090CC1840ED060
:1045300017E009880268C1F3080151600169002988
:10454000016A02D0491C0162ECE7891CFBE70168A3
:10455000CA6822F08002CA600068C16841F0400168
:10456000C1600020704700000148FEF78DB80000D0
:10457000CC0400200148FEF787B800000C0500209D
:104580000148FEF781B800004C050020FEE700005E
:104590002DE9F05F1E4C4FF07E59484621690F46C9
:1045A000FBF7A9FE616CFBF7ACFE1A4D06463846D8
:1045B0002968FBF7A6FEDFF860A05146FBF7D3FEA3
:1045C0003146FBF746FE154E804615497060686817
:1045D000FBF7C9FEC6F8BC00616907468B46484632
:1045E000FBF789FEE16CFBF78CFE06465846A9688E
:1045F000FBF787FE5146FBF7B6FE3146FBF729FE77
:1046000008498860C4F84480C4E91270BDE8F09F8E
:104610001400002064060020000034433C08002001
:104620000000B443C00A0020490050EAC12018BF6E
:1046300004204A0D18BF40F0010040F2FF72B2EBB7
:10464000515F08BF40F00200012808BF05207047F5
:104650002DE9F74F144694B00021C4E902111599D1
:10466000079121F00045C9498D4206DC1599C4E93E
:10467000000117B00020BDE8F08FC549DFF814A392
:10468000A9423CDD0799C44E0029C44FC44A15997C
:10469000534619DDFBF752FF554506D0C14AC24BC0
:1046A000FBF74CFFC4E900010AE04FF0D352BE4BC8
:1046B000FBF744FF32463B46FBF740FFC4E90001ED
:1046C00017B00120BDE8F08FFBF797FE554506D0E7
:1046D000B44AB54BFBF791FEC4E900010AE04FF084
:1046E000D352B14BFBF789FE32463B46FBF785FEC2
:1046F000C4E9000117B04FF0FF30BDE8F08FAB49BF
:10470000A942159978DB21F0004183468846A84AE2
:10471000A84BFBF719FF0022A74BFBF76EFEFCF737
:104720003EF80990FCF711F806460F469C4A53469E
:10473000FBF70AFF43465A46FBF703FF80468A46CB
:10474000984A994B30463946FBF7FEFE2A0D012563
:104750000B9242465346FBF7F4FE032DC4E90001D9
:1047600039D00B98C1F30A51401A05EB45111139A4
:10477000814230DA9148C346784400EB0510CDF809
:104780000CA00C90D0E9002330463946FBF7DCFE44
:1047900002460B460491069058460399FBF7CEFE5D
:1047A00080468A4602460B4658460399FBF7C6FEEA
:1047B000049B069AFBF7C2FE83460C980391394688
:1047C000D0E902233046FBF7BFFE5A46039BFBF7B6
:1047D000B5FE6D1CBDE707980028A2BF099817B069
:1047E000BDE8F08F616881F000416160099817B001
:1047F0004042BDE8F08FFFE784461598C1F31301EE
:10480000C0F30A50A0F2F5304FEA601800F01F061E
:10481000C6F12000139000200690079041F4801EFE
:1048200005206D4676B1664A08EB00017A4452F8DD
:10483000213002EB8101B3404A68139922FA01F159
:10484000194305E05F4908EB0002794451F8221052
:10485000A1FB0E27A1FB0C131A449A4234BF01237B
:10486000002303EB070A05EB8003D3E901B70F44EC
:104870008F4234BF0121002193448B4411B19345F1
:1048800002D903E0934501D2012100E00021C3E9F0
:1048900001B7514445F82010011EA0F10100C1DC10
:1048A0000298059F00F10050800F12900298DDE9F8
:1048B00003568000FBF749FF834628460D91FCF71D
:1048C00019F96FF01D02FBF720FFCDE90E0130460C
:1048D000FCF710F96FF03D02FBF717FF80468A46A0
:1048E0003846FCF707F96FF05D02FBF70EFF07464D
:1048F000424653461191FBF780FDDDE90E23FBF79D
:104900007CFD5A460D9BFBF778FD00250E465A4666
:1049100028460D9BFBF712FEDDE90E23FBF70EFE8A
:1049200042465346FBF70AFE3A46119BFBF709FE47
:10493000DFF898A0244A5346FBF706FE0746884650
:10494000234A244B31462846FBF7FEFD3A464346B0
:10495000FBF753FD074688464FF0A84253463146C1
:104960002846FBF7F1FD3A464346FBF746FD159A0C
:1049700012F0004F04D0129A81F00041524212927C
:10498000C4E90001129817B0BDE8F08FFB21E93FA0
:104990007CD90240FB21F93F7370032E8A19A33B97
:1049A000000040543163621A61B4D03DFB213941AB
:1049B00083C8C96D305FE43F0000E03FB4230000CE
:1049C0003023000012230000182D4454FB21F93D30
:1049D0003326A611460B113C2DE9FF4D21F000486E
:1049E00007460C46B8F1795F08DAFBF7D8FE0028D5
:1049F00001BF0020324904B0BDE8F08D3A4623469D
:104A000010461946FBF7A0FD054602462D480E4606
:104A10000B460621784400F05DF82A463346FBF742
:104A200093FDDDE9022382468B4638462146FBF79B
:104A30008BFD04460F4652465B4628463146FBF73F
:104A400083FD22463B46FBF779FD07468A464FF039
:104A5000FF3228463146FBF758FE1B4A90450ADADA
:104A60003A465346FBF76AFD04B00022BDE8F04D1C
:104A7000134BFBF766BD154A4245A8BFA8F50015C4
:104A80004FF00004B8BF124D22462B46FBF756FDEF
:104A90000646884622462B4600200949FBF74EFD74
:104AA00004460D463A46534630464146FBF746FD1E
:104AB00004B022462B46BDE8F04DFBF742BD000096
:104AC0000000F03FE02000003333D33F0000E93F17
:104AD0000000D23F2DE9F0414F1E00EBC701044614
:104AE000D1E9000115461E4637F006020DD02A46D0
:104AF0003346FBF729FD7F1E04EBC703D3E90023F0
:104B0000FBF77BFC37F00602F1D1022F25D0042FF2
:104B100013D0062F18BFBDE8F0812A463346FBF7B5
:104B200013FDD4E90A23FBF768FC2A463346FBF75A
:104B30000BFDD4E90823FBF760FC2A463346FBF75C
:104B400003FDD4E90623FBF758FC2A463346FBF75E
:104B5000FBFCD4E90423FBF750FC2A463346FBF761
:104B6000F3FCD4E90223FBF748FC2A463346FBF763
:104B7000EBFCD4E90023BDE8F041FBF73EBC0000AC
:104B80002DE9FF4D054621F0004084B00C46B0F100
:104B9000795F0BDA2846FFF747FD042808BF00F0CD
:104BA000BDF9284608B02146BDE8F08D2A460B46DF
:104BB0001046FBF7C9FC06460F462A462346FBF77C
:104BC000C3FC804626488A4632463B460521784447
:104BD000FFF780FF83461098029160B3214A224B71
:104BE00040465146FBF7B0FCCDE900015A4640462D
:104BF0005146029BFBF7A8FC82468846DDE9060188
:104C00004FF0FF32FBF781FD52464346FBF796FC1F
:104C100032463B46FBF798FCDDE90623FBF78EFCAA
:104C2000DDE90023FBF78AFC08B02A462346BDE8ED
:104C3000F04DFBF786BC0B465A4630463946FBF72B
:104C400083FC084A084BFBF7D8FB42465346FBF768
:104C50007BFC08B02A462346BDE8F04DFBF7CDBBF0
:104C600026200000495555555555C5BF2DE9F04D35
:104C700004468CB0904821F00047164698460D46F1
:104C80000991874206DA20462946FBF788FD00286D
:104C900000F0AE808948B8421CDC09980028BCBFEF
:104CA00085F0004588F00048854A864B2046294615
:104CB000FBF747FC04460D4632464346824883498B
:104CC000FBF73CFC22462B46FBF797FB00260446ED
:104CD0000D46B04622462B4610461946FBF734FCDB
:104CE0008B46824602460B46FBF72EFC0246089096
:104CF00077480B46009106217844FFF7EBFECDE99B
:104D00000310744806217844009B089AFFF7E2FEDE
:104D100052465B46FBF718FCCDE9051052465B4650
:104D200020462946FBF710FC07910090DDE90310AF
:104D3000DDE90532FBF761FB079B009AFBF704FCFA
:104D400032464346FBF759FB52465B46FBF7FCFBFA
:104D500032464346FBF751FB80460E465E4A5F4BA8
:104D600007990098FBF7F0FB42463346FBF745FBFB
:104D700082468B4622462B46FBF73FFB80464F4838
:104D80000E46B84214985BDCFBF7DFFC0746424650
:104D900033460591FBF731FBCDE90110424633461E
:104DA00010461946FBF7D0FBDDE90132FBF73EFC6C
:104DB00052465B46FBF7C2FB22462B46FBF7C1FB84
:104DC0000122FBF7A2FC3A46059BFBF7BAFB04461F
:104DD0000D460998022101EAA070C0F10100FBF71D
:104DE000B4FC0CB022462B46BDE8F04DFBF7ACBB43
:104DF0001498401C384320430BD01498012812D03B
:104E00000CB022462B46BDE8F04D00203449FBF79C
:104E10000DBC0CB025F000432246BDE8F04D00204B
:104E20003049FBF703BC20462946FFF7FDFB042869
:104E300008BF00F073F820460CB02946BDE8F08D9D
:104E4000012802BF40460CB0BDE8F08D00270B469C
:104E50003A4620462946FBF774FB52465B46FBF771
:104E600070FB04460D464246334600201C49FBF7C2
:104E7000DDFB83463A46884633461046FBF764FB23
:104E80000022184BFBF7B9FA06468A4622462B4603
:104E900038464146FBF758FB32465346FBF7ADFA1E
:104EA0005A464346FBF750FB0CB03A464346BDE832
:104EB000F04DFBF7A2BA00000000303E2894E53F19
:104EC000182D4454FB21E93F075C143326A6813C8E
:104ED000241F0000461F0000635555555555D53F0A
:104EE0000000F0BF0000F03F0022134610460149C9
:104EF000FBF79CBB0000F03F0122FBF706BCFBF771
:104F00007CBA0022134610461146FBF78FBB40F2D5
:104F1000013200204FF0E041FBF7F7BB024A0020CE
:104F20001107FBF7F2BB000001FDFFFF02E008C81C
:104F3000121F08C1002AFAD170477047002001E013
:104F400001C1121F002AFBD170470000014908600F
:104F500070470000F40200202DE9F041274CA068C2
:104F6000FBF73CFC4FF080480022434600F054FF22
:104F700006460D466068FBF731FC0022434600F010
:104F80004BFF32462B46FBF738FA01F081FC064610
:104F900020680D4680F00040FBF720FC32462B468F
:104FA000FBF744FB00F0A8FAFBF744FC144E306218
:104FB000A068FBF713FC0022434600F02DFF0546D6
:104FC0000F462068FBF70AFC0022434600F024FF4E
:104FD0002A463B46FBF711FA01F05AFC05460F46FC
:104FE0006068FBF7FBFB2A463B46FBF71FFB00F024
:104FF00083FAFBF71FFC7062BDE8F081CC0600204D
:10500000140000202DE9F05F4D6846680188408853
:10501000546801FB00F84FEA980721E030682968DE
:10502000D6F80490FBF715F9834669684846D6F828
:1050300008A0FBF70EF9A968C4E900B0D6F80CB0D7
:105040005046D5F80C90FBF704F98246494658467D
:10505000FBF7FFF8C4E902A01034103510367F1EAC
:10506000002FDBD108F0030707E029683068FBF761
:10507000F0F801C42D1D361D7F1E002FF5D1002034
:10508000BDE8F09F01804280436070472DE9F34FF7
:1050900095B04FF07E55159840680E901598496868
:1050A0000D91B0F800804488002005901090404693
:1050B00000230EE0A8EB000201E008C1521E002A06
:1050C000FBD120C1421E01E008C1521E002AFBD1C3
:1050D000401E0028EED10F94E5E000BF0E990BFBB7
:1050E00004F001EB80050D990B9501EB80060C9601
:1050F0002868059000205F464FF4000A049017E0EE
:105100002868504505DB0499FBF7BAFB0BD22868E9
:105110000AE080F000400499FBF7B2FB03D2286854
:1051200080F0004000E0049805EB84057F1C0490AB
:105130004745E5D3049810F0FF4F6ED0012008904A
:105140000598DDF83890504501DA80F00040049968
:10515000FBF78CFB36D0A8EB0B00A0F1010A04FB97
:105160000BF009EB80052AE00898604306EB800706
:105170002868B0F5000F01DA80F000400499FBF7D1
:1051800075FB17D1A4EB0B0006E0D9F800202968C5
:1051900004C549F8041B401E0028F6D1204604E04F
:1051A0003268396804C702C6401E0028F8D10120C1
:1051B00010900EE00898AAF1010A401C0890BAF17C
:1051C000000FD1D11098012803D0059810F0FF4F9F
:1051D00023D00B9D11950C9E1296A4EB0B0728680B
:1051E000CDE9050705E028680599FBF7BCF801C57E
:1051F0007F1E002FF7D1254605E030680599FBF7A3
:10520000B2F801C66D1E002DF7D1DDE90D65002055
:1052100003904046CDF820803BE061E0039858457C
:1052200005D1069806EB840605EB800528E0286882
:105230000590DDE911A9069F0DE028680490DAF8D1
:1052400000100598FBF75DF80499FBF757F801C5C6
:105250000AF1040A7F1E002FEFD127460EE000BF9F
:10526000D6F800A0D9F800100598FBF74AF8514687
:10527000FBF744F801C609F104097F1E002FEFD1A6
:10528000089805EB8B05401E08900398401C03907E
:1052900008980028C2D10E98001D0E900F98401E4D
:1052A0000F900BF1010083460F9800287FF416AF92
:1052B0001099012916D0059911F0FF4F12D11599B7
:1052C00008FB04F24B68002106E000BF53F82140C0
:1052D00014F0FF4F02D1491C8A42F7D88A4201D10B
:1052E0006FF0040017B0BDE8F08F2DE9F74F88B0DC
:1052F0005168D0F804900291099A01884088558835
:1053000004900020CDE900010498800805900099E0
:105310000298AA4600EB8100039009984FF0000B19
:1053200046684FF000084C46059F2EE0D4E9000285
:10533000316806EB85060692FAF7E3FF4146FAF775
:1053400088FF8046316806EB85060698FAF7D9FF94
:105350004146FAF77EFF8046D4E90202316806EB47
:1053600085060692FAF7CDFF4146FAF772FF8046AE
:10537000316806EB85060698FAF7C3FF4146FAF74F
:1053800068FF7F1E8046BFB21034002FCED1049834
:1053900000F003070CE031682068FAF7B2FF4146DD
:1053A000FAF757FF7F1E804606EB8506BFB2241D25
:1053B000002FF0D10398C0F800800398001D0390DF
:1053C0000BF101001FFA80FB09984168AAF1010066
:1053D00080B201EB8B065FEA000AA2D10098284454
:1053E00080B20090049809EB80090198401E0004E7
:1053F000000C01908BD10BB0BDE8F08F2DE9F05F70
:105400004D68466801884088546801FB00F84FEAFF
:10541000980721E030682968D6F80490FAF76BFF06
:10542000834669684846D6F808A0FAF764FFA96879
:10543000C4E900B0D6F80CB05046D5F80C90FAF795
:105440005AFF824649465846FAF755FFC4E902A07A
:105450001034103510367F1E002FDBD108F0030703
:1054600007E029683068FAF746FF01C42D1D361D94
:105470007F1E002FF5D10020BDE8F09FF0B54F68EA
:1054800001884688426800240B46B508284607EB89
:10549000840C19E052F804EBCCF800E00CEB810C22
:1054A00052F804EBCCF800E00CEB810C52F804EB62
:1054B000CCF800E00CEB810C52F804EBCCF800E0E7
:1054C000401E0CEB810C80B20028E3D106F00300F3
:1054D00008E000BF52F804EBCCF800E0401E0CEBF3
:1054E000810C80B20028F5D1641C5B1E1B04A4B2A1
:1054F0001B0CCBD1F0BD00002DE9F84F04460D4642
:1055000021F0004000917349814211DC72498842C8
:1055100001DC06D12CB120462946BDE8F84FFFF743
:10552000EBBC6E48002DCCBF6D496E49BDE8F88FCD
:105530006D49814211DD6D498142D8BF4FF0FF3680
:105540006DDD20462946FFF76FF8042808BFFFF7F6
:10555000E5FC20462946BDE8F88F6549654F25F0F2
:105560000045814233DD6449814219DD002632461F
:105570004FF0804320462946FAF73FFF80468A468F
:10558000012220462946FBF7C0F800223B46FAF7E5
:10559000D5FF42465346FBF749F804460D463EE028
:1055A00001260022BA463B4620462946FAF725FF47
:1055B00080460F460022534620462946FAF7BEFF92
:1055C00042463B46FBF732F804460D4627E04B497E
:1055D00081421BDDDFF828A1022600225346204627
:1055E0002946FAF7B1FF00223B46FAF706FF80464C
:1055F0000F460022534620462946FAF79FFF4246AF
:105600003B46FBF713F804460D4608E00326224606
:105610002B4600203B49FBF709F804460D4622467D
:105620002B4610461946FAF78FFF8B4682460246F4
:105630000B46FAF789FF07460246334888460B4671
:1056400006217844FFF746FA52465B46FAF77CFF9C
:1056500082462E488B463A46434605217844FFF75A
:1056600039FA3A464346FAF76FFF02460B46002ED8
:10567000504659460CDAFAF7C0FE22462B46FAF796
:1056800063FF01B022462B46BDE8F04FFAF759BF41
:10569000FAF7B3FE22462B46FAF756FF1C4A7A4425
:1056A00002EBC603D3E90023FAF748FF22462B4654
:1056B000FAF744FF174A7A4402EBC603D3E9002302
:1056C000FAF73FFF009A002AB8BF81F00041BDE819
:1056D000F88F0000000010440000F07F182D4454A3
:1056E000FB21F93FFB21F9BF0000DC3F0000203E19
:1056F0000000F33F0000F03F0000E63F0080034061
:105700000000F83F0000F0BFA2130000601300008B
:10571000FE120000C612000000B5244B21F000422A
:1057200087B09A42DCBF0022134629DD204B9A4203
:1057300008D140B94FF00100FFF708FCFFF7E1FB8B
:1057400007B000BD03DBFFF7D7FB07B000BD02AA1F
:10575000FEF77EFF10F0030104BF0DF1080C9CE87A
:105760000F000DD0012001290ED0022914D00DF117
:10577000080C00909CE80F00FFF702FA07B000BD8C
:10578000FFF72AF907B000BD0DF1080C00909CE866
:105790000F00FFF7F5F905E00DF1080C9CE80F008C
:1057A000FFF71AF907B081F0004100BDFB21E93F86
:1057B0000000F07F2DE9F04D894BCE0F21F000471E
:1057C00084B005460C469F4230D38648874211D3A9
:1057D000C7F31300284305D004B02846BDE8F04DB8
:1057E000FFF78ABB002E1ABF00200146284604B0EE
:1057F000BDE8F08D7C4A2846FBF752F907D202201B
:10580000FFF7A4FB04B0BDE8F04DFFF780BB774A7B
:10581000774B28462146FAF7F5FF07D20220FFF71B
:1058200095FB04B0BDE8F04DFFF778BB7148B84276
:1058300048D27148874215D27048784400EBC600C0
:105840002146D0E900232846FAF778FECDE9000189
:105850006B48784400EBC600D0E900ABC6F101000C
:10586000861B26E0674A684B28462146FAF76CFEFD
:10587000664A7A4402EBC603D3E90023FAF7BDFD7A
:10588000FAF78DFF0646FAF760FF07468846604A3A
:10589000604BFAF759FE2A462346FAF752FECDE945
:1058A00000015D4A5D4B38464146FAF74DFE82469F
:1058B0008B46DDE9000152465B46FAF73FFE05469E
:1058C0000C4618E05648874214D2564A564B284692
:1058D0002146FAF792FD554E00223346FBF7E0F8D9
:1058E00008D204B0334628462146BDE8F04D0022D8
:1058F000FAF783BD00262A46234610461946FAF7D2
:1059000023FE804602464A480F460B46052178444E
:10591000FFF7E0F842463B46FAF716FE2A462346D2
:10592000FAF70FFE07468846E6B302460B4600200C
:105930004FF08041FAF702FECDE902013A464346B4
:1059400028462146FAF700FEDDE90223FAF76EFE4B
:1059500052465B46FAF7F5FDDDE90023FAF7EEFD66
:105960000022324BFAF7EDFD6FF47F729642A2BF30
:1059700001EB065104B0BDE8F08D4FF07A5202EB16
:10598000065211442B4AFAF7C0FE04460D46FEF7B4
:105990004BFE042808BFFFF7C1FA204604B0294691
:1059A000BDE8F08DFFE700224FF08043FAF7C6FD17
:1059B00082460E463A46434628462146FAF7C4FD3B
:1059C00052463346FAF732FE2A462346FAF7B6FD28
:1059D00004B00022BDE8F04D144BFAF7B2BD000050
:1059E000422E86400000F07FEF39FAFE51302DD56F
:1059F000104987C0422ED63FB2A2F03FEA11000004
:105A0000E2110000FE822B654715F73FA21100004E
:105A10000000E0FE422EE63F763C7935EF39EA3D64
:105A20000000303E9C7500883CE4377E0000F03F6B
:105A30003611000018FCFFFF2DE9F05F534D686937
:105A4000FAF7CCFE524C06460F46606AFAF7C6FEDD
:105A500000F0CEFE32463B46FAF776FD8046894698
:105A60002869FAF7BBFE06460F46606AFAF7B6FEEB
:105A7000FFF752FE32463B46FAF766FD42464B467A
:105A8000FAF75CFDFAF7D6FEA0626869FAF7A6FE9F
:105A900007468946206AFAF7A1FE00F01FFF064676
:105AA0008846606AFAF79AFEFFF736FE43463246AA
:105AB000FAF74AFD3A464B46FAF746FD81468A46D2
:105AC0002869FAF78BFE80460F46206AFAF786FEB1
:105AD00000F004FF83460E46606AFAF77FFE00F08E
